{
  "_format": "hh-sol-artifact-1",
  "contractName": "AegisSupporterToken",
  "sourceName": "contracts/AegisSupporterToken.sol",
  "abi": [
    {
      "inputs": [
        {
          "internalType": "address",
          "name": "publicKey",
          "type": "address"
        }
      ],
      "stateMutability": "nonpayable",
      "type": "constructor"
    },
    {
      "anonymous": false,
      "inputs": [
        {
          "indexed": true,
          "internalType": "address",
          "name": "owner",
          "type": "address"
        },
        {
          "indexed": true,
          "internalType": "address",
          "name": "approved",
          "type": "address"
        },
        {
          "indexed": true,
          "internalType": "uint256",
          "name": "tokenId",
          "type": "uint256"
        }
      ],
      "name": "Approval",
      "type": "event"
    },
    {
      "anonymous": false,
      "inputs": [
        {
          "indexed": true,
          "internalType": "address",
          "name": "owner",
          "type": "address"
        },
        {
          "indexed": true,
          "internalType": "address",
          "name": "operator",
          "type": "address"
        },
        {
          "indexed": false,
          "internalType": "bool",
          "name": "approved",
          "type": "bool"
        }
      ],
      "name": "ApprovalForAll",
      "type": "event"
    },
    {
      "anonymous": false,
      "inputs": [
        {
          "indexed": true,
          "internalType": "address",
          "name": "previousOwner",
          "type": "address"
        },
        {
          "indexed": true,
          "internalType": "address",
          "name": "newOwner",
          "type": "address"
        }
      ],
      "name": "OwnershipTransferred",
      "type": "event"
    },
    {
      "anonymous": false,
      "inputs": [
        {
          "indexed": true,
          "internalType": "address",
          "name": "from",
          "type": "address"
        },
        {
          "indexed": true,
          "internalType": "address",
          "name": "to",
          "type": "address"
        },
        {
          "indexed": true,
          "internalType": "uint256",
          "name": "tokenId",
          "type": "uint256"
        }
      ],
      "name": "Transfer",
      "type": "event"
    },
    {
      "inputs": [
        {
          "internalType": "address",
          "name": "to",
          "type": "address"
        },
        {
          "internalType": "uint256",
          "name": "tokenId",
          "type": "uint256"
        }
      ],
      "name": "approve",
      "outputs": [],
      "stateMutability": "nonpayable",
      "type": "function"
    },
    {
      "inputs": [
        {
          "internalType": "address",
          "name": "owner",
          "type": "address"
        }
      ],
      "name": "balanceOf",
      "outputs": [
        {
          "internalType": "uint256",
          "name": "",
          "type": "uint256"
        }
      ],
      "stateMutability": "view",
      "type": "function"
    },
    {
      "inputs": [
        {
          "internalType": "uint256",
          "name": "tokenId",
          "type": "uint256"
        }
      ],
      "name": "getApproved",
      "outputs": [
        {
          "internalType": "address",
          "name": "",
          "type": "address"
        }
      ],
      "stateMutability": "view",
      "type": "function"
    },
    {
      "inputs": [
        {
          "internalType": "address",
          "name": "owner",
          "type": "address"
        },
        {
          "internalType": "address",
          "name": "operator",
          "type": "address"
        }
      ],
      "name": "isApprovedForAll",
      "outputs": [
        {
          "internalType": "bool",
          "name": "",
          "type": "bool"
        }
      ],
      "stateMutability": "view",
      "type": "function"
    },
    {
      "inputs": [],
      "name": "name",
      "outputs": [
        {
          "internalType": "string",
          "name": "",
          "type": "string"
        }
      ],
      "stateMutability": "view",
      "type": "function"
    },
    {
      "inputs": [],
      "name": "owner",
      "outputs": [
        {
          "internalType": "address",
          "name": "",
          "type": "address"
        }
      ],
      "stateMutability": "view",
      "type": "function"
    },
    {
      "inputs": [
        {
          "internalType": "uint256",
          "name": "tokenId",
          "type": "uint256"
        }
      ],
      "name": "ownerOf",
      "outputs": [
        {
          "internalType": "address",
          "name": "",
          "type": "address"
        }
      ],
      "stateMutability": "view",
      "type": "function"
    },
    {
      "inputs": [],
      "name": "renounceOwnership",
      "outputs": [],
      "stateMutability": "nonpayable",
      "type": "function"
    },
    {
      "inputs": [
        {
          "internalType": "address",
          "name": "to",
          "type": "address"
        }
      ],
      "name": "safeMint",
      "outputs": [],
      "stateMutability": "nonpayable",
      "type": "function"
    },
    {
      "inputs": [
        {
          "internalType": "address",
          "name": "from",
          "type": "address"
        },
        {
          "internalType": "address",
          "name": "to",
          "type": "address"
        },
        {
          "internalType": "uint256",
          "name": "tokenId",
          "type": "uint256"
        }
      ],
      "name": "safeTransferFrom",
      "outputs": [],
      "stateMutability": "nonpayable",
      "type": "function"
    },
    {
      "inputs": [
        {
          "internalType": "address",
          "name": "from",
          "type": "address"
        },
        {
          "internalType": "address",
          "name": "to",
          "type": "address"
        },
        {
          "internalType": "uint256",
          "name": "tokenId",
          "type": "uint256"
        },
        {
          "internalType": "bytes",
          "name": "_data",
          "type": "bytes"
        }
      ],
      "name": "safeTransferFrom",
      "outputs": [],
      "stateMutability": "nonpayable",
      "type": "function"
    },
    {
      "inputs": [
        {
          "internalType": "address",
          "name": "operator",
          "type": "address"
        },
        {
          "internalType": "bool",
          "name": "approved",
          "type": "bool"
        }
      ],
      "name": "setApprovalForAll",
      "outputs": [],
      "stateMutability": "nonpayable",
      "type": "function"
    },
    {
      "inputs": [
        {
          "internalType": "bytes4",
          "name": "interfaceId",
          "type": "bytes4"
        }
      ],
      "name": "supportsInterface",
      "outputs": [
        {
          "internalType": "bool",
          "name": "",
          "type": "bool"
        }
      ],
      "stateMutability": "view",
      "type": "function"
    },
    {
      "inputs": [],
      "name": "symbol",
      "outputs": [
        {
          "internalType": "string",
          "name": "",
          "type": "string"
        }
      ],
      "stateMutability": "view",
      "type": "function"
    },
    {
      "inputs": [
        {
          "internalType": "uint256",
          "name": "index",
          "type": "uint256"
        }
      ],
      "name": "tokenByIndex",
      "outputs": [
        {
          "internalType": "uint256",
          "name": "",
          "type": "uint256"
        }
      ],
      "stateMutability": "view",
      "type": "function"
    },
    {
      "inputs": [
        {
          "internalType": "address",
          "name": "owner",
          "type": "address"
        },
        {
          "internalType": "uint256",
          "name": "index",
          "type": "uint256"
        }
      ],
      "name": "tokenOfOwnerByIndex",
      "outputs": [
        {
          "internalType": "uint256",
          "name": "",
          "type": "uint256"
        }
      ],
      "stateMutability": "view",
      "type": "function"
    },
    {
      "inputs": [
        {
          "internalType": "uint256",
          "name": "tokenId",
          "type": "uint256"
        }
      ],
      "name": "tokenURI",
      "outputs": [
        {
          "internalType": "string",
          "name": "",
          "type": "string"
        }
      ],
      "stateMutability": "view",
      "type": "function"
    },
    {
      "inputs": [],
      "name": "totalSupply",
      "outputs": [
        {
          "internalType": "uint256",
          "name": "",
          "type": "uint256"
        }
      ],
      "stateMutability": "view",
      "type": "function"
    },
    {
      "inputs": [
        {
          "internalType": "address",
          "name": "from",
          "type": "address"
        },
        {
          "internalType": "address",
          "name": "to",
          "type": "address"
        },
        {
          "internalType": "uint256",
          "name": "tokenId",
          "type": "uint256"
        }
      ],
      "name": "transferFrom",
      "outputs": [],
      "stateMutability": "nonpayable",
      "type": "function"
    },
    {
      "inputs": [
        {
          "internalType": "address",
          "name": "newOwner",
          "type": "address"
        }
      ],
      "name": "transferOwnership",
      "outputs": [],
      "stateMutability": "nonpayable",
      "type": "function"
    },
    {
      "inputs": [],
      "name": "user",
      "outputs": [
        {
          "internalType": "address",
          "name": "",
          "type": "address"
        }
      ],
      "stateMutability": "view",
      "type": "function"
    }
  ],
  "bytecode": "0x60806040523480156200001157600080fd5b506040516200271b3803806200271b8339810160408190526200003491620003fd565b600c5462000059906001600160a01b0316601462000102602090811b620009f117901c565b6040516020016200006b919062000426565b60408051601f1981840301815282820190915260038252621054d560ea1b6020838101919091528151919291620000a9916000919085019062000357565b508051620000bf90600190602084019062000357565b505050620000dc620000d66200030160201b60201c565b62000305565b600c80546001600160a01b0319166001600160a01b039290921691909117905562000538565b6060600062000113836002620004a9565b620001209060026200048e565b6001600160401b038111156200014657634e487b7160e01b600052604160045260246000fd5b6040519080825280601f01601f19166020018201604052801562000171576020820181803683370190505b509050600360fc1b816000815181106200019b57634e487b7160e01b600052603260045260246000fd5b60200101906001600160f81b031916908160001a905350600f60fb1b81600181518110620001d957634e487b7160e01b600052603260045260246000fd5b60200101906001600160f81b031916908160001a9053506000620001ff846002620004a9565b6200020c9060016200048e565b90505b6001811115620002a6576f181899199a1a9b1b9c1cb0b131b232b360811b85600f16601081106200025057634e487b7160e01b600052603260045260246000fd5b1a60f81b8282815181106200027557634e487b7160e01b600052603260045260246000fd5b60200101906001600160f81b031916908160001a90535060049490941c936200029e81620004cb565b90506200020f565b508315620002fa5760405162461bcd60e51b815260206004820181905260248201527f537472696e67733a20686578206c656e67746820696e73756666696369656e74604482015260640160405180910390fd5b9392505050565b3390565b600a80546001600160a01b038381166001600160a01b0319831681179093556040519116919082907f8be0079c531659141344cd1fd0a4f28419497f9722a3daafe3b4186f6b6457e090600090a35050565b8280546200036590620004e5565b90600052602060002090601f016020900481019282620003895760008555620003d4565b82601f10620003a457805160ff1916838001178555620003d4565b82800160010185558215620003d4579182015b82811115620003d4578251825591602001919060010190620003b7565b50620003e2929150620003e6565b5090565b5b80821115620003e25760008155600101620003e7565b6000602082840312156200040f578081fd5b81516001600160a01b0381168114620002fa578182fd5b7f416567697320537570706f7274657220546f6b656e206f662055736572200000815260008251815b818110156200046e576020818601810151601e8684010152016200044f565b81811115620004805782601e83860101525b5091909101601e0192915050565b60008219821115620004a457620004a462000522565b500190565b6000816000190483118215151615620004c657620004c662000522565b500290565b600081620004dd57620004dd62000522565b506000190190565b600181811c90821680620004fa57607f821691505b602082108114156200051c57634e487b7160e01b600052602260045260246000fd5b50919050565b634e487b7160e01b600052601160045260246000fd5b6121d380620005486000396000f3fe608060405234801561001057600080fd5b50600436106101075760003560e01c806301ffc9a71461010c57806306fdde0314610134578063081812fc14610149578063095ea7b31461017457806318160ddd1461018957806323b872dd1461019b5780632f745c59146101ae57806340d097c3146101c157806342842e0e146101d45780634f6ccce7146101e75780634f8632ba146101fa5780636352211e1461020d57806370a0823114610220578063715018a6146102335780638da5cb5b1461023b57806395d89b4114610243578063a22cb4651461024b578063b88d4fde1461025e578063c87b56dd14610271578063e985e9c514610284578063f2fde38b14610297575b600080fd5b61011f61011a3660046119df565b6102aa565b60405190151581526020015b60405180910390f35b61013c6102bb565b60405161012b9190611eeb565b61015c610157366004611a17565b61034d565b6040516001600160a01b03909116815260200161012b565b6101876101823660046119b6565b6103da565b005b6008545b60405190815260200161012b565b6101876101a936600461186d565b6104eb565b61018d6101bc3660046119b6565b61051c565b6101876101cf366004611821565b6105b2565b6101876101e236600461186d565b61060a565b61018d6101f5366004611a17565b610625565b600c5461015c906001600160a01b031681565b61015c61021b366004611a17565b6106c6565b61018d61022e366004611821565b61073d565b6101876107c4565b61015c6107ff565b61013c61080e565b61018761025936600461197c565b61081d565b61018761026c3660046118a8565b610828565b61013c61027f366004611a17565b610860565b61011f61029236600461183b565b610923565b6101876102a5366004611821565b610951565b60006102b582610bd9565b92915050565b6060600080546102ca9061207b565b80601f01602080910402602001604051908101604052809291908181526020018280546102f69061207b565b80156103435780601f1061031857610100808354040283529160200191610343565b820191906000526020600020905b81548152906001019060200180831161032657829003601f168201915b5050505050905090565b600061035882610bfe565b6103be5760405162461bcd60e51b815260206004820152602c60248201527f4552433732313a20617070726f76656420717565727920666f72206e6f6e657860448201526b34b9ba32b73a103a37b5b2b760a11b60648201526084015b60405180910390fd5b506000908152600460205260409020546001600160a01b031690565b60006103e5826106c6565b9050806001600160a01b0316836001600160a01b031614156104535760405162461bcd60e51b815260206004820152602160248201527f4552433732313a20617070726f76616c20746f2063757272656e74206f776e656044820152603960f91b60648201526084016103b5565b336001600160a01b038216148061046f575061046f8133610923565b6104dc5760405162461bcd60e51b815260206004820152603860248201527f4552433732313a20617070726f76652063616c6c6572206973206e6f74206f776044820152771b995c881b9bdc88185c1c1c9bdd995908199bdc88185b1b60421b60648201526084016103b5565b6104e68383610c1b565b505050565b6104f53382610c89565b6105115760405162461bcd60e51b81526004016103b590611f85565b6104e6838383610d53565b60006105278361073d565b82106105895760405162461bcd60e51b815260206004820152602b60248201527f455243373231456e756d657261626c653a206f776e657220696e646578206f7560448201526a74206f6620626f756e647360a81b60648201526084016103b5565b506001600160a01b03919091166000908152600660209081526040808320938352929052205490565b336105bb6107ff565b6001600160a01b0316146105e15760405162461bcd60e51b81526004016103b590611f50565b60006105ec600b5490565b90506105fc600b80546001019055565b6106068282610ee8565b5050565b6104e683838360405180602001604052806000815250610828565b600061063060085490565b82106106935760405162461bcd60e51b815260206004820152602c60248201527f455243373231456e756d657261626c653a20676c6f62616c20696e646578206f60448201526b7574206f6620626f756e647360a01b60648201526084016103b5565b600882815481106106b457634e487b7160e01b600052603260045260246000fd5b90600052602060002001549050919050565b6000818152600260205260408120546001600160a01b0316806102b55760405162461bcd60e51b815260206004820152602960248201527f4552433732313a206f776e657220717565727920666f72206e6f6e657869737460448201526832b73a103a37b5b2b760b91b60648201526084016103b5565b60006001600160a01b0382166107a85760405162461bcd60e51b815260206004820152602a60248201527f4552433732313a2062616c616e636520717565727920666f7220746865207a65604482015269726f206164647265737360b01b60648201526084016103b5565b506001600160a01b031660009081526003602052604090205490565b336107cd6107ff565b6001600160a01b0316146107f35760405162461bcd60e51b81526004016103b590611f50565b6107fd6000610f02565b565b600a546001600160a01b031690565b6060600180546102ca9061207b565b610606338383610f54565b6108323383610c89565b61084e5760405162461bcd60e51b81526004016103b590611f85565b61085a8484848461101f565b50505050565b600c5460609060009061087d906001600160a01b031660146109f1565b905060008161088b85611052565b60405160200161089c929190611a77565b604051602081830303815290604052905060006108b885611052565b836108c287611052565b856108cc8661116b565b6040516020016108e0959493929190611d08565b60405160208183030381529060405290506108fa8161116b565b60405160200161090a9190611e69565b6040516020818303038152906040529350505050919050565b6001600160a01b03918216600090815260056020908152604080832093909416825291909152205460ff1690565b3361095a6107ff565b6001600160a01b0316146109805760405162461bcd60e51b81526004016103b590611f50565b6001600160a01b0381166109e55760405162461bcd60e51b815260206004820152602660248201527f4f776e61626c653a206e6577206f776e657220697320746865207a65726f206160448201526564647265737360d01b60648201526084016103b5565b6109ee81610f02565b50565b60606000610a00836002612002565b610a0b906002611fd6565b6001600160401b03811115610a3057634e487b7160e01b600052604160045260246000fd5b6040519080825280601f01601f191660200182016040528015610a5a576020820181803683370190505b509050600360fc1b81600081518110610a8357634e487b7160e01b600052603260045260246000fd5b60200101906001600160f81b031916908160001a905350600f60fb1b81600181518110610ac057634e487b7160e01b600052603260045260246000fd5b60200101906001600160f81b031916908160001a9053506000610ae4846002612002565b610aef906001611fd6565b90505b6001811115610b83576f181899199a1a9b1b9c1cb0b131b232b360811b85600f1660108110610b3157634e487b7160e01b600052603260045260246000fd5b1a60f81b828281518110610b5557634e487b7160e01b600052603260045260246000fd5b60200101906001600160f81b031916908160001a90535060049490941c93610b7c81612064565b9050610af2565b508315610bd25760405162461bcd60e51b815260206004820181905260248201527f537472696e67733a20686578206c656e67746820696e73756666696369656e7460448201526064016103b5565b9392505050565b60006001600160e01b0319821663780e9d6360e01b14806102b557506102b5826112cc565b6000908152600260205260409020546001600160a01b0316151590565b600081815260046020526040902080546001600160a01b0319166001600160a01b0384169081179091558190610c50826106c6565b6001600160a01b03167f8c5be1e5ebec7d5bd14f71427d1e84f3dd0314c0f7b2291e5b200ac8c7c3b92560405160405180910390a45050565b6000610c9482610bfe565b610cf55760405162461bcd60e51b815260206004820152602c60248201527f4552433732313a206f70657261746f7220717565727920666f72206e6f6e657860448201526b34b9ba32b73a103a37b5b2b760a11b60648201526084016103b5565b6000610d00836106c6565b9050806001600160a01b0316846001600160a01b03161480610d3b5750836001600160a01b0316610d308461034d565b6001600160a01b0316145b80610d4b5750610d4b8185610923565b949350505050565b826001600160a01b0316610d66826106c6565b6001600160a01b031614610dca5760405162461bcd60e51b815260206004820152602560248201527f4552433732313a207472616e736665722066726f6d20696e636f72726563742060448201526437bbb732b960d91b60648201526084016103b5565b6001600160a01b038216610e2c5760405162461bcd60e51b8152602060048201526024808201527f4552433732313a207472616e7366657220746f20746865207a65726f206164646044820152637265737360e01b60648201526084016103b5565b610e3783838361131c565b610e42600082610c1b565b6001600160a01b0383166000908152600360205260408120805460019290610e6b908490612021565b90915550506001600160a01b0382166000908152600360205260408120805460019290610e99908490611fd6565b909155505060008181526002602052604080822080546001600160a01b0319166001600160a01b03868116918217909255915184939187169160008051602061217e83398151915291a4505050565b610606828260405180602001604052806000815250611327565b600a80546001600160a01b038381166001600160a01b0319831681179093556040519116919082907f8be0079c531659141344cd1fd0a4f28419497f9722a3daafe3b4186f6b6457e090600090a35050565b816001600160a01b0316836001600160a01b03161415610fb25760405162461bcd60e51b815260206004820152601960248201527822a9219b99189d1030b8383937bb32903a379031b0b63632b960391b60448201526064016103b5565b6001600160a01b03838116600081815260056020908152604080832094871680845294825291829020805460ff191686151590811790915591519182527f17307eab39ab6107e8899845ad3d59bd9653f200f220920489ca2b5937696c31910160405180910390a3505050565b61102a848484610d53565b6110368484848461135a565b61085a5760405162461bcd60e51b81526004016103b590611efe565b6060816110765750506040805180820190915260018152600360fc1b602082015290565b8160005b81156110a0578061108a816120b6565b91506110999050600a83611fee565b915061107a565b6000816001600160401b038111156110c857634e487b7160e01b600052604160045260246000fd5b6040519080825280601f01601f1916602001820160405280156110f2576020820181803683370190505b5090505b8415610d4b57611107600183612021565b9150611114600a866120d1565b61111f906030611fd6565b60f81b81838151811061114257634e487b7160e01b600052603260045260246000fd5b60200101906001600160f81b031916908160001a905350611164600a86611fee565b94506110f6565b606081516000141561118b57505060408051602081019091526000815290565b600060405180606001604052806040815260200161213e60409139905060006003845160026111ba9190611fd6565b6111c49190611fee565b6111cf906004612002565b6001600160401b038111156111f457634e487b7160e01b600052604160045260246000fd5b6040519080825280601f01601f19166020018201604052801561121e576020820181803683370190505b509050600182016020820185865187015b8082101561128a576003820191508151603f8160121c168501518453600184019350603f81600c1c168501518453600184019350603f8160061c168501518453600184019350603f811685015184535060018301925061122f565b50506003865106600181146112a657600281146112b9576112c1565b603d6001830353603d60028303536112c1565b603d60018303535b509195945050505050565b60006001600160e01b031982166380ac58cd60e01b14806112fd57506001600160e01b03198216635b5e139f60e01b145b806102b557506301ffc9a760e01b6001600160e01b03198316146102b5565b6104e6838383611467565b611331838361151f565b61133e600084848461135a565b6104e65760405162461bcd60e51b81526004016103b590611efe565b60006001600160a01b0384163b1561145c57604051630a85bd0160e11b81526001600160a01b0385169063150b7a029061139e903390899088908890600401611eae565b602060405180830381600087803b1580156113b857600080fd5b505af19250505080156113e8575060408051601f3d908101601f191682019092526113e5918101906119fb565b60015b611442573d808015611416576040519150601f19603f3d011682016040523d82523d6000602084013e61141b565b606091505b50805161143a5760405162461bcd60e51b81526004016103b590611efe565b805181602001fd5b6001600160e01b031916630a85bd0160e11b149050610d4b565b506001949350505050565b6001600160a01b0383166114c2576114bd81600880546000838152600960205260408120829055600182018355919091527ff3f7a9fe364faab93b216da50a3214154f22a0a2b415b23a84c8169e8b636ee30155565b6114e5565b816001600160a01b0316836001600160a01b0316146114e5576114e5838261164b565b6001600160a01b0382166114fc576104e6816116e8565b826001600160a01b0316826001600160a01b0316146104e6576104e682826117c1565b6001600160a01b0382166115755760405162461bcd60e51b815260206004820181905260248201527f4552433732313a206d696e7420746f20746865207a65726f206164647265737360448201526064016103b5565b61157e81610bfe565b156115ca5760405162461bcd60e51b815260206004820152601c60248201527b115490cdcc8c4e881d1bdad95b88185b1c9958591e481b5a5b9d195960221b60448201526064016103b5565b6115d66000838361131c565b6001600160a01b03821660009081526003602052604081208054600192906115ff908490611fd6565b909155505060008181526002602052604080822080546001600160a01b0319166001600160a01b038616908117909155905183929060008051602061217e833981519152908290a45050565b600060016116588461073d565b6116629190612021565b6000838152600760205260409020549091508082146116b5576001600160a01b03841660009081526006602090815260408083208584528252808320548484528184208190558352600790915290208190555b5060009182526007602090815260408084208490556001600160a01b039094168352600681528383209183525290812055565b6008546000906116fa90600190612021565b6000838152600960205260408120546008805493945090928490811061173057634e487b7160e01b600052603260045260246000fd5b90600052602060002001549050806008838154811061175f57634e487b7160e01b600052603260045260246000fd5b60009182526020808320909101929092558281526009909152604080822084905585825281205560088054806117a557634e487b7160e01b600052603160045260246000fd5b6001900381819060005260206000200160009055905550505050565b60006117cc8361073d565b6001600160a01b039093166000908152600660209081526040808320868452825280832085905593825260079052919091209190915550565b80356001600160a01b038116811461181c57600080fd5b919050565b600060208284031215611832578081fd5b610bd282611805565b6000806040838503121561184d578081fd5b61185683611805565b915061186460208401611805565b90509250929050565b600080600060608486031215611881578081fd5b61188a84611805565b925061189860208501611805565b9150604084013590509250925092565b600080600080608085870312156118bd578081fd5b6118c685611805565b93506118d460208601611805565b92506040850135915060608501356001600160401b03808211156118f6578283fd5b818701915087601f830112611909578283fd5b81358181111561191b5761191b612111565b604051601f8201601f19908116603f0116810190838211818310171561194357611943612111565b816040528281528a602084870101111561195b578586fd5b82602086016020830137918201602001949094529598949750929550505050565b6000806040838503121561198e578182fd5b61199783611805565b9150602083013580151581146119ab578182fd5b809150509250929050565b600080604083850312156119c8578182fd5b6119d183611805565b946020939093013593505050565b6000602082840312156119f0578081fd5b8135610bd281612127565b600060208284031215611a0c578081fd5b8151610bd281612127565b600060208284031215611a28578081fd5b5035919050565b60008151808452611a47816020860160208601612038565b601f01601f19169290920160200192915050565b60008151611a6d818560208601612038565b9290920192915050565b7f3c73766720786d6c6e733d22687474703a2f2f7777772e77332e6f72672f323081527f30302f73766722207072657365727665417370656374526174696f3d22784d6960208201527f6e594d696e206d656574222076696577426f783d22302030203335302033353060408201527f223e3c7374796c653e2e626173657b66696c6c3a236666663b666f6e742d666160608201527f6d696c793a6d6f6e6f73706163653b666f6e742d73697a653a313070787d3c2f60808201527f7374796c653e3c726563742077696474683d223130302522206865696768743d60a08201527f2231303025222f3e3c7465787420783d223530252220793d223230252220636c60c08201527f6173733d22626173652220646f6d696e616e742d626173656c696e653d226d6960e08201527f64646c652220746578742d616e63686f723d226d6964646c65223e41656769736101008201527f20537570706f7274657220546f6b656e3c2f746578743e3c7465787420783d226101208201527f3530252220793d223530252220636c6173733d22626173652220646f6d696e616101408201527f6e742d626173656c696e653d226d6964646c652220746578742d616e63686f726101608201527101e9136b4b2323632911f37b3102ab9b2b9160751b6101808201526000610d4b611cef611ce9611c75610192860188611a5b565b7f3c2f746578743e3c7465787420783d223530252220793d223830252220636c6181527f73733d22626173652220646f6d696e616e742d626173656c696e653d226d696460208201527b032363291103a32bc3a16b0b731b437b91e9136b4b2323632911f11960251b6040820152605c0190565b85611a5b565b6c1e17ba32bc3a1f1e17b9bb339f60991b8152600d0190565b607b60f81b81527f226e616d65223a2022416567697320537570706f7274657220546f6b656e20236001820152600160fd1b602182015260008651611d54816022850160208b01612038565b6801037b3102ab9b2b9160bd1b6022918401918201528651611d7d81602b840160208b01612038565b61088b60f21b602b92909101918201527f226465736372697074696f6e223a20225468697320746f6b656e207265707265602d8201526e039b2b73a39903337b63637bb90119608d1b604d820152611e5d611e4f611e49611e13611e05611dff611dea605c88018d611a5b565b6801037b3103ab9b2b9160bd1b815260090190565b8a611a5b565b61088b60f21b815260020190565b7f22696d616765223a2022646174613a696d6167652f7376672b786d6c3b626173815263194d8d0b60e21b602082015260240190565b86611a5b565b61227d60f01b815260020190565b98975050505050505050565b7f646174613a6170706c69636174696f6e2f6a736f6e3b6261736536342c000000815260008251611ea181601d850160208701612038565b91909101601d0192915050565b6001600160a01b0385811682528416602082015260408101839052608060608201819052600090611ee190830184611a2f565b9695505050505050565b602081526000610bd26020830184611a2f565b60208082526032908201527f4552433732313a207472616e7366657220746f206e6f6e20455243373231526560408201527131b2b4bb32b91034b6b83632b6b2b73a32b960711b606082015260800190565b6020808252818101527f4f776e61626c653a2063616c6c6572206973206e6f7420746865206f776e6572604082015260600190565b60208082526031908201527f4552433732313a207472616e736665722063616c6c6572206973206e6f74206f6040820152701ddb995c881b9bdc88185c1c1c9bdd9959607a1b606082015260800190565b60008219821115611fe957611fe96120e5565b500190565b600082611ffd57611ffd6120fb565b500490565b600081600019048311821515161561201c5761201c6120e5565b500290565b600082821015612033576120336120e5565b500390565b60005b8381101561205357818101518382015260200161203b565b8381111561085a5750506000910152565b600081612073576120736120e5565b506000190190565b600181811c9082168061208f57607f821691505b602082108114156120b057634e487b7160e01b600052602260045260246000fd5b50919050565b60006000198214156120ca576120ca6120e5565b5060010190565b6000826120e0576120e06120fb565b500690565b634e487b7160e01b600052601160045260246000fd5b634e487b7160e01b600052601260045260246000fd5b634e487b7160e01b600052604160045260246000fd5b6001600160e01b0319811681146109ee57600080fdfe4142434445464748494a4b4c4d4e4f505152535455565758595a6162636465666768696a6b6c6d6e6f707172737475767778797a303132333435363738392b2fddf252ad1be2c89b69c2b068fc378daa952ba7f163c4a11628f55a4df523b3efa2646970667358221220fc0fae1982e555189cd689f0d2a42540ba1d44674c441f963182a0b127f92b9164736f6c63430008040033",
  "linkReferences": {},
  "deployedLinkReferences": {}
}